:060000000A128A110C280F
:10000800FE00030EF0000A08F1000A128A112F2AD6
:100018000A128A110F28F801F901FA018312031351
:10002800A001A101A201A30183010A128A11C42916
:10003800F401F501F601F7011A30F300F830F20087
:10004800F20B2428F30B2428000083120313861DC7
:10005800BB280130A0001A30F300F830F200F20B90
:100068003328F30B3328000083120313061EB72826
:100078002308031D080005149501F430F800013029
:10008800F9000D307902AC30031978020318B3284F
:1000980074087802F2007508031C750A7902F300E7
:1000A80001307302F43003197202031C6A287608BF
:1000B8007704031D6A283E3095007908F500780812
:1000C800F4000130F6000030F70084287408780244
:1000D800F2007508031C750A7902F30001307302F7
:1000E800F43003197202031C842876037704031D75
:1000F800842895017908F5007808F400F601F701DD
:100108001A30F300F830F200F20B8828F30B882835
:10011800000083120313061B861E93288514861974
:10012800A3281A30F300F830F200F20B9928F30BE9
:1001380099280000831203130510A001B128061A9C
:1001480045281A30F300F830F200F20BA928F30B17
:10015800A9280000831203130510A3019501950136
:100168000130A30008000510A30195010800A001B3
:100178000510A30195010800F401F501F601F70146
:100188001A30F300F830F200F20BC828F30BC82835
:10019800000083120313061B861E5229061E5229CD
:1001A800851495012208031D08002C30F800013041
:1001B800F9000C307902E4300319780203184E294B
:1001C8001A30F300F830F200F20BE828F30BE828B5
:1001D800000083120313061B861EF428061AF7284C
:1001E8008510A201432974087802F2007508031CDF
:1001F800750A7902F300013073022C300319720278
:10020800031C162976087704031D16293E3095002D
:1002180085107908F5007808F4000130F600003000
:10022800F700312974087802F2007508031C750A72
:100238007902F30000307302C83003197202031CFC
:10024800312976037704031D31299501851479082E
:10025800F5007808F400F601F7011A30F300F830D9
:10026800F200F20B3529F30B352900008312031332
:10027800861D45292008031D45290130A000950148
:100288004E298619DD282003031DDD28A001A301BE
:100298000510DD2895010130A20008008510A20193
:1002A80095010800F401F501F601F7011A30F30091
:1002B800F830F200F20B5E29F30B5E29000083127E
:1002C8000313861B861AC029061AC0290510A30124
:1002D80005152108031D08009630F8000030F900C4
:1002E800AD2974087802F2007508031C750A7902B2
:1002F800F30000307302963003197202031C93292D
:1003080076087704031D93293E3095007908F50097
:100318007808F4000130F6000030F700AD297408C1
:100328007802F2007508031C750A7902F3000030A0
:100338007302643003197202031CAD297603770433
:10034800031DAD2995017908F5007808F400F60138
:10035800F7010C3079024E30031978020318BC29D2
:10036800861B861AB929061E75290511A101950152
:1003780095010130A10008000511A10195010800AF
:100388000A128A110F220A128A110A128A114A22A3
:100398000A128A1183120510851005110230831282
:1003A8000313A6000430A500B930A400A40BDA2971
:1003B800A50BDA29A60BDA29E1290A128A111C20D1
:1003C8000A128A11023083120313A6000430A50012
:1003D800B930A400A40BEE29A50BEE29A60BEE2933
:1003E800F5290A128A11C0200A128A1102308312D2
:1003F8000313A6000430A500B930A400A40B022AF8
:10040800A50B022AA60B022A092A0A128A115621CA
:100418000A128A11D2295030831687007C30920044
:100428000C3083129700073092009501CF30970562
:10043800FF30831686008501031789018801023081
:10044800031381000630831281008B160B178B175C
:100458008316811708000B1D432A063083120313E5
:1004680081000130FA070A307A02031C422A0A3056
:10047800F8070318F90A0030F907FA010B11710897
:100488008A00700E8300FE0E7E0E090070308F0405
:040498000F14080035
:02400E00E42CA0
:00000001FF
