:060000000A128A11F82F1C
:100D3800831603138701FF3092000C3083120313CC
:100D480097000430920010309500FF30831603138B
:100D580086008501831603178901880108000A1295
:100D68008A119C260A128A11831203130510851012
:100D7800051185110A128A11EC260A128A111A30F5
:100D8800F500F830F400F40BC72EF50BC72E000061
:100D98000A128A118E270A128A111A30F500F830C1
:100DA800F400F40BD52EF50BD52E00000A128A118B
:100DB80039270A128A111A30F500F830F400F40BBA
:100DC800E32EF50BE32E0000BE2E0A128A1100282E
:100DD80083120313061CF12EF22E352F0130F60074
:100DE800061EF72EF82E382F05147908031DFD2E40
:100DF800FE2E382F9501F301503095000630F20091
:100E08001330F100AD30F000F00B082FF10B082F74
:100E1800F20B082F0F2F8312031395010630F200EF
:100E28001330F100AD30F000F00B182FF10B182F34
:100E3800F20B182F1F2F83120313061C242F252FA4
:100E4800322F061A282F292F2A2F322F0130F30785
:100E580003307302031C312F322F002F0130F900A9
:100E6800382FF6010510F901080083120313861FB5
:100E78003E2F3F2F8B2F861A422F432F8B2F061A78
:100E8800462F472F8B2F0510F90105157708031DED
:100E98004E2F4F2F8D2FF301503095000230F20066
:100EA8008630F1009930F000F00B582FF10B582FD5
:100EB800F20B582F83120313851195010430F200A9
:100EC8000C30F1003330F000F00B682FF10B682F75
:100ED800F20B682F6F2F83120313861F742F752F41
:100EE8007D2F861A782F792F7D2F061E7C2F7D2F38
:100EF800802F0511F701882F0130F30703307302A3
:100F0800031C872F882F502F0130F7008D2F0511D4
:100F1800F701080083120313061F932F942FF52F50
:100F2800861E972F982FF52F061E9B2F9C2FF52F87
:100F380085147808031DA12FA22FF72F9501F3011F
:100F4800061CA72FA82FAE2F7608031DAC2FAD2F98
:100F5800AE2FF22F0618B12FB22FB92F7603031D2B
:100F6800B62FB72FB92FF901051085153230950026
:100F78000430F2000C30F1003330F000F00BC22FD7
:100F8800F10BC22FF20BC22FC92F83120313851145
:100F980095010230F2008630F1009930F000F00B34
:100FA800D32FF10BD32FF20BD32F83120313061F6A
:100FB800DE2FDF2FE72F861EE22FE32FE72F061AFB
:100FC800E62FE72FEA2F8510F801F22F0130F307FB
:100FD80003307302031CF12FF22FA42F0130F80005
:100FE800F72F8510F8010800F601F701F801F9015B
:080FF80083010A128A11B32ED5
:02400E00E22F9F
:00000001FF
